:020000040800F2
:10000000807000205D020008719A000815690008E0
:10001000459A0008FD0B000885AE000800000000AE
:100020000000000000000000000000009D0100082A
:10003000E50F000800000000F9010008499E0008D3
:1000400077020008770200087702000877020008AC
:10005000770200087702000877020008770200089C
:10006000770200087702000877020008A10D000857
:10007000B10D0008C10D000877020008D10D00087D
:10008000E10D0008770200087702000877020008F7
:10009000770200087702000877020008770200085C
:1000A000299F0008770200087702000877020008FD
:1000B0007702000877020008770200082969000823
:1000C0001969000877020008770200087702000823
:1000D0007702000855AE000865AE000875AE00084E
:1000E000770200087702000877020008770200080C
:1000F000770200087702000877020008F10D000877
:1001000077020008770200087702000877020008EB
:1001100071A5000881A50008419F0008519F0008B3
:100120007702000877020008010E00087702000835
:1001300077020008770200087702000877020008BB
:1001400077020008770200087702000877020008AB
:100150007702000877020008110E000877020008F5
:10016000770200087702000877020008770200088B
:1001700077020008770200087702000800000000FC
:100180007702000877020008DFF80CD000F01EFCB0
:1001900000480047F1E20008807000202C4B1968ED
:1001A0000868B0E8F04F80F30988BFF36F8F4FF015
:1001B000000080F3118870470000000008480068C4
:1001C000006880F308884FF0000080F3148862B65E
:1001D00061B6BFF34F8FBFF36F8F00DF00BF00BF6B
:1001E00008ED00E0DFF80C00016841F470010160E7
:1001F000704700BF88ED00E0EFF30980BFF36F8F19
:10020000134B1A681EF0100F08BF20ED108A20E96A
:10021000F04F106009B44FF0500080F31188BFF325
:100220004F8FBFF36F8F0FF027FF4FF0000080F369
:10023000118809BC19680868B0E8F04F1EF0100F6B
:1002400008BFB0EC108A80F30988BFF36F8F704746
:100250003C030020EFF3058070470000064880470C
:1002600006480047FEE7FEE7FEE7FEE7FEE7FEE79B
:10027000FEE7FEE7FEE7FEE7159F0008890100089C
:100280002DE9F05F0546002092469B4688460646CB
:10029000814640241BE0284641464746224600F05E
:1002A00075FA53465A46C01A914110D31146184662
:1002B000224600F016F82D1A67EB01084F46224639
:1002C0000120002100F00DF817EB00094E41201E1F
:1002D000A4F10104DFDC484631462A464346BDE826
:1002E000F09F202A04DB203A00FA02F10020704738
:1002F0009140C2F1200320FA03F319439040704764
:1003000040EA01039B0703D009E008C9121F08C097
:10031000042AFAD203E011F8013B00F8013B521E17
:10032000F9D27047D2B201E000F8012B491EFBD28E
:1003300070470022F6E710B513460A4604461946F0
:10034000FFF7F0FF204610BD421C10F8011B0029EA
:10035000FBD1801A704730B504460020034600E008
:100360005B1C934203D2E05CCD5C401BF8D030BDF7
:1003700010B50346002004E0401C491C03F8014B63
:10038000521E012A02D90C78002CF5D122B100228C
:100390001A7001E0401C491C0A78002AFAD110BDED
:1003A0002DE9FE4F804681EA0300C00F0C46009005
:1003B00021F0004123F00045B8EB0200A94105D22D
:1003C0004046214690461C460B46024623F000401C
:1003D000104347D0270DC7F30A00C3F30A51029018
:1003E000401A019040286BDAC3F3130040F4801BDD
:1003F0000098924620B10023D2EB030A63EB0B0B6B
:1004000001985946C0F140025046FFF76AFF064680
:100410000D4650465946019A00F0C8F910EB080005
:100420006141002487EA115284EAE7731A4340D0FD
:10043000009A62B3019A012A4FEA075215DC001BA9
:1004400061EB02014FF0004202EA0752CDE900429F
:10045000001C41F5801132462B4600F0FFF903B035
:10046000BDE8F08F40462146F9E7001B61EB020131
:10047000001C41F5801300185B412018A2F50017FD
:1004800047EB030140EAD570B6196D4111E06D08E4
:100490004FEA360645EAC0754FEA0752001B61EB8A
:1004A0000201001C41F5801149084FEA3000001993
:1004B000514132462B4603B0BDE8F04F00F0BFB9C2
:1004C0000098012240000023D0EB020263EBE073AE
:1004D000009821464FEAE074B8EB000061EB04019C
:1004E000E9E783F000435BE781F0004158E72DE93D
:1004F000FE4F81EA030404F0004421F0004100941F
:100500004FF0000B23F0004350EA01045ED052EAA2
:1005100003045BD0C3F30A54C1F30A552C44A4F27C
:10052000F3340194A0FB0254C1F3130141F4801190
:10053000C3F3130343F4801301FB024400FB034E97
:10054000840A970A44EA815447EA8357A4FB076860
:1005500002958D0A05FB07854FEA932C04FB0C548A
:100560002705029D4FEA065847EA1637B5EB0805FE
:100570006EEB070C870E920E47EA811742EA831250
:10058000A7FB0201B6EB0B0164EB00042B0D43EA61
:100590000C335E1844EB1C50DA465146E7FB02016F
:1005A000C5F313044FEA0B3343EA14534FEA043202
:1005B000019C43EA0603A4F10C040294009CCDE9DB
:1005C00000B400F04BF903B0BDE8F08F0020014605
:1005D000F9E72DE9F04D81EA030404F0004B21F026
:1005E000004514464FF0000A23F0004150EA05028E
:1005F00020D054EA01021DD0C5F30A570246C5F3C4
:100600001303C1F31300C1F30A5640F4801543F4F9
:100610008013A7EB0608101BD64608F2FD3873EBD3
:10062000050002D308F1010801E092185B41B8F11E
:10063000000F03DA00200146BDE8F08D00204FF4E2
:100640008011064684460EE0171B73EB050705D3A1
:10065000121B63EB050306434CEA010C49084FEA01
:10066000300092185B4150EA0107EDD152EA0300D5
:1006700012D082EA040083EA0501084305D0101B6A
:10068000AB4106D20122002306E000224FF00043D6
:1006900002E06FF0010253101AEB06004CEB085118
:1006A00010EB0A0041EB0B01BDE8F04D00F0C7B8BC
:1006B0000EB5C10F80EAE0700844CA07002140F27D
:1006C00033438DE80E000A460B4600F0C7F803B02E
:1006D00000BD00F0004230F000400AD0C10D01F52D
:1006E0006071C0F3160042EA0151C208400711438D
:1006F000704700200146704730B5041E71F10004B8
:1007000004DB4FF00044404264EB0101141E73F11E
:10071000000405DB1C464FF00043524263EB040328
:10072000994208BF904230BD01F0004330B421F03F
:10073000004150EA010206D00A0DA2F56072C1F331
:100740001301002A02DC30BC00207047440F44EA49
:10075000C104C100E01830BC00EBC25000F038B852
:1007600030B50B46014600202022012409E021FA81
:1007700002F59D4205D303FA02F5491B04FA02F57E
:100780002844151EA2F10102F1DC30BD202A04DB51
:10079000203A21FA02F00021704721FA02F3D040FA
:1007A000C2F120029140084319467047202A06DB17
:1007B000CB17203A41FA02F043EAE07306E041FA2F
:1007C00002F3D040C2F1200291400843194670471D
:1007D0000029A8BF7047401C490008BF20F0010055
:1007E000704710B4B0FA80FC00FA0CF050EA010433
:1007F00004BF10BC704749B1CCF1200421FA04F4C5
:1008000011FA0CF118BF012121430843A3EB0C019D
:10081000CB1D4FEA00614FEA102042BF002010BC00
:10082000704700EBC35010440029A4BF10BC7047B0
:10083000401C490008BF20F0010010BC704710B5F3
:10084000141E73F1000408DA401C41F100019218F3
:100850005B411A4301D120F0010010BD2DE9F04D9C
:1008600092469B4611B1B1FA81F202E0B0FA80F2F1
:1008700020329046FFF735FD04460F4640EA0A0055
:1008800041EA0B0153465A46084313D0114653EA36
:10089000010019D0C8F140025046FFF777FF054626
:1008A0000E46504659464246FFF71BFD084305D009
:1008B000012004E020463946BDE8F08D00200543C4
:1008C00046EAE0762C4337430A986305E40AA0EB36
:1008D00008000022FD0A44EA47540A3002D50020ED
:1008E0000146E9E7010510196941DDE908450019EC
:1008F0006941BDE8F04DA2E72DE9F04D00231A460D
:100900001B1A8A4103DB00200146BDE8F08DC1F3CC
:100910000A52C1F3130141F480154FF0000BD107C7
:1009200002D100186D41521E0027044640F2FF110B
:10093000384601EB620A3E468046024600204FF4EC
:100940008011FFF723FFC2197141BB1846EB01006C
:10095000B4EB030C75EB000C04D3E41A65EB000553
:1009600017460E46241908F101006D4180463428CF
:10097000E3DDF91946EB0600091BA84103D24FF04D
:10098000FF32134601E0002213461BEB070046EB43
:100990000A51BDE8F04DFFF752BFC1F30A52C1F34F
:1009A000130140F2FF3341F480119A4202DA002031
:1009B0000146704740F233439A42A2F2334202DCCE
:1009C0005242FFF7E3BEFFF78CBC0000064C074D18
:1009D00006E0E06840F0010394E80700984710340F
:1009E000AC42F6D3FFF7D4FB604A0108804A010805
:1009F00070B58C1810F8015B15F0070301D110F8E1
:100A0000013B2A1106D110F8012B03E010F8016B0D
:100A100001F8016B5B1EF9D12B0705D40023521E90
:100A20000DD401F8013BFAE710F8013BCB1A921CF8
:100A300003E013F8015B01F8015B521EF9D5A142F6
:100A4000D8D3002070BD000070B504465B4D6868C7
:100A500020F4403068606868616808436860206816
:100A6000406820F4807021684860206841682069EF
:100A700041EA0020216848602068406820F040700A
:100A80002168486020684068A16808432168486080
:100A90002068806820F40060216888602068806891
:100AA000E1680843216888604549A06A884218D0F7
:100AB0002068806820F07060216888602068806805
:100AC000A16A0843216888602068806820F040504F
:100AD0002168886020688068E16A0843216888602E
:100AE0000BE02068806820F07060216888602068D2
:100AF000806820F04050216888602068806820F07D
:100B000002002168886020688168207E41EA4000F8
:100B1000216888602020005DF8B1606A18B1606AC1
:100B2000082800D804E04FF4F56126A00BF0F7F890
:100B30002068406840F40060216848602068406890
:100B400020F460402168486020684168606A401E67
:100B500041EA40302168486005E02068406820F4A0
:100B60000060216848602068C06A20F47000216835
:100B7000C8622068C16AA08B401E41EA005021680B
:100B8000C8622068806820F400702168886020684E
:100B9000816894F8300041EA40202168886020682C
:100BA000806820F4806021688860206881686069BE
:100BB00041EA80202168886070BD00000023014068
:100BC0000100000F2E5C447269766572735C5354A9
:100BD0004D3332463478785F48414C5F44726976D1
:100BE00065725C5372635C73746D3332663478780B
:100BF0005F68616C5F6164632E63000000BFFEE7A5
:100C000010B545484078002871D04448007880B934
:100C10000120424908700FF0B5FF414908600021EA
:100C20003D4A1161516101203E4908703E4803F080
:100C3000DDFB3C48007801282AD10FF0A3FF38499A
:100C40000968401A3449496888423ED3364803F05F
:100C500087FC00224FF40061344801F059FC0FF08A
:100C600091FF2F49086000202E4908702A4800781B
:100C7000012802D10020284948702748D0E90431D2
:100C80004068181841F10001234AC2E904011CE040
:100C90000FF078FF22490968401A1F498968884285
:100CA00013D3214803F0A2FB0FF06CFF1C4908602E
:100CB00001201C4908701848D0E9043180681818D0
:100CC00041F10001144AC2E90401134800780328E5
:100CD00021D11148D0E904300F49D1E906219A1AEF
:100CE000884118D300200C49487014E0FFE70E48F3
:100CF00003F036FC00224FF400610C4801F008FCC0
:100D0000002007490860054908700649087020213D
:100D10000148FFF70EFB10BDB8060020B00100200F
:100D2000AC010020B1010020801C0020000C02401A
:100D300010B50222054B1A7001225A701A465060F3
:100D4000916000231446A361E36110BDB806002042
:100D500030B50324044D2C7001246C702C46606067
:100D6000A160C4E9062330BDB80600200020014977
:100D700048707047B806002000B59FED061A4FF482
:100D8000FA712F20DFED040A9FED040A08F0E8FE57
:100D900000BD00006666663E2DB29D3E643B9F3EF0
:100DA00010B5024800F024FE10BD0000801F002096
:100DB00010B5024800F01CFE10BD000060210020AC
:100DC00010B5024800F014FE10BD0000C01E002047
:100DD00010B5024800F00CFE10BD0000201F0020DE
:100DE00010B5024800F004FE10BD000000210020F4
:100DF00010B5024800F0FCFD10BD0000E01F00200F
:100E000010B5024800F0F4FD10BD000040200020A5
:100E100010B5024800F0ECFD10BD0000A02000203D
:100E20000146087810381823B0FBF3F20848805CBC
:100E3000C865032A05D908686FF30900001D886595
:100E400003E008686FF309008865886D704700004B
:100E5000CC490108014600208A6A8B69CBB932B1BE
:100E6000012A0DD0022A03D0032A10D10EE000BFC0
:100E7000CB6A03F08073B3F1807F00D1012007E0DB
:100E8000CB6AB3F1C07F00D1012001E000E000BFD8
:100E900034E08B69B3F5005F1AD132B1012A07D073
:100EA000022A03D0032A11D10AE000BF01200EE07C
:100EB000CB6A03F08073B3F1807F00D1012006E09C
:100EC000CB6AB3F1C07F00D1012000E000BF15E084
:100ED00032B1012A05D0022A04D0032A0CD103E042
:100EE00000BF00BF012008E0CB6A03F08073B3F1BC
:100EF000807F00D1012000E000BF00BF704730B507
:100F00000468246824F4802405682C600468636005
:100F10008468402C04D10468A2600468E16003E0A6
:100F20000468A1600468E26030BD00002DE9F04172
:100F300004460D4617462878402803D1781E285CC1
:100F4000612802D00020BDE8F0816E78A6F1310062
:100F500007281AD2DFE800F004070A0D1013160064
:100F60000120607012E0022060700FE003206070CA
:100F70000CE00420607009E00520607006E00620A7
:100F8000607003E00720607000BF00BF00BF204614
:100F9000E16988476378324602A1114809F074FF7D
:100FA0000120D0E7506172736564206672616D65DF
:100FB000207769746820636F6D6D616E643A2030CC
:100FC00078253032582C2075706461746564207304
:100FD0007461746520746F3A2025640A0000000073
:100FE000C0210020704710B50446204601F03EF8AD
:100FF00010BD000010B53C21074804F0A5F83C21C5
:10100000064804F0A1F83C21054804F09DF83C2175
:10101000044804F099F810BD601B0020A81B0020B4
:10102000F01B0020381C002072B600BFFEE7000055
:1010300010B5154800F032FB6421134800F0C6FAE1
:10104000114800F03DF904460F4800F009FCC4F3D4
:101050000B0400EE104AB8EE400ADFED0C0A20EE59
:10106000200AF2EE060A20EE200AF7EE000A20EE31
:10107000200ADFED070A80EE201A064880ED001AEC
:1010800090ED000A10BD0000C41A0020295C4F40FA
:1010900000008045A8010020F8B505460C46002058
:1010A00000902068122800D804E040F28B6172A002
:1010B0000AF035FE606818B16068102800D804E0B6
:1010C00040F28C616CA00AF02AFEA068A0B1A06872
:1010D000012811D0A06802280ED0A06803280BD0E8
:1010E000A068042808D0A068052805D0A0680628B4
:1010F00002D0A068072800D104E040F28D615EA014
:101100000AF00DFE00BF95F83C00012801D1022035
:10111000F8BD012085F83C0000BF2068092816D9D9
:101120002868C06821780A3901EB41020721914003
:1011300088432968C86021780A3901EB4101A06819
:1011400088402968C96808432968C86013E028688E
:101150000069217801EB4102072191408843296809
:101160000861217801EB4101A0688840296809697C
:101170000843296808616068072817D22868406B0F
:101180002179491E01EB81021F2191408843296882
:101190004863208880B22179491E01EB8101884093
:1011A0002968496B08432968486331E060680D2865
:1011B00017D22868006B2179C91F01EB81021F211A
:1011C0009140884329680863208880B22179C91F2B
:1011D00001EB810188402968096B0843296808638D
:1011E00016E02868C06A21790D3901EB81021F21C0
:1011F000914088432968C862208880B221790D39DE
:1012000001EB810188402968C96A08432968C862DE
:10121000274E28492868884206D12068122803D121
:10122000706840F4800070602249286888421CD1B0
:101230002068102802D02068112816D1706840F468
:1012400000007060206810280FD11B4800681B49FF
:10125000B0FBF1F000EB80004000009002E000984D
:10126000401E009000980028F9D100BF002085F8AA
:101270003C0000BF00BF4BE72E5C4472697665728C
:10128000735C53544D3332463478785F48414C5F39
:101290004472697665725C5372635C73746D333249
:1012A000663478785F68616C5F6164632E63000008
:1012B0000023014000200140FC02002040420F00BA
:1012C00001460868C06C704770B5044600250CB92B
:1012D000012070BD8B492068884207D08A49206868
:1012E000884203D089492068884200D104E04FF445
:1012F000A17187A00AF013FD606858B16068B0F56D
:10130000803F07D06068B0F5003F03D06068B0F55B
:10131000403F00D104E040F243117DA00AF0FFFC01
:10132000A06858B1A068B0F1807F07D0A068B0F184
:10133000007F03D0A068B0F1407F00D104E04FF4FB
:10134000A27173A00AF0EBFC206910B1206901289A
:1013500000D104E040F245116DA00AF0E0FC207ECF
:1013600010B1207E012800D104E04FF4A37168A0E1
:101370000AF0D5FCA06AE8B3A06AB0F1807F3DD046
:10138000A06AB0F1007F39D0A06AB0F1407F35D0BB
:10139000A06AB0F1806F31D0A06AB0F1A06F2DD0FB
:1013A000A06AB0F1C06F29D0A06AB0F1E06F25D07B
:1013B000A06AB0F1006F21D0A06AB0F1106F1DD00B
:1013C000A06AB0F1206F19D0A06AB0F1306F15D0CB
:1013D000A06AB0F1406F11D0A06AB0F1506F0DD08B
:1013E000A06AB0F1606F09D0A06AB0F1706F05D04B
:1013F000554900E002E0A06A884200D104E040F2D2
:10140000471143A00AF08BFCE06818B1E068B0F522
:10141000006F00D104E04FF4A4713DA00AF07FFCFE
:10142000E06918B1E069102800D804E040F24911E1
:1014300037A00AF074FC94F8300018B194F830002A
:10144000012800D104E04FF4A57131A00AF067FC37
:101450006069012804D0606910B16069022800D178
:1014600004E040F24B112AA00AF059FC2020005D54
:1014700018B12020005D012800D104E04FF4A671CE
:1014800023A00AF04CFC3049A06A884213D0E06ADD
:1014900058B1E06AB0F1805F07D0E06AB0F1005F58
:1014A00003D0E06AB0F1405F00D104E04FF4A871CE
:1014B00017A00AF034FC206C30B9204600F046F842
:1014C0000020606484F83C00206C00F0100088B9B3
:1014D000206C20F4885040F0020020642046FFF782
:1014E000B3FA00206064206C20F0020040F001009C
:1014F000206400E0012500BF002084F83C0000BF0C
:101500002846E6E60020014000210140002201407B
:101510002E5C447269766572735C53544D33324667
:101520003478785F48414C5F4472697665725C53E9
:1015300072635C73746D3332663478785F68616CA3
:101540005F6164632E6300000100000F10B586B078
:101550000446142101A8FEF7ECFE194920688842D0
:101560002BD100BF002000901648006840F4807026
:10157000144908600846006800F48070009000BFBD
:1015800000BF00BF002000900E481438006840F0F3
:1015900002000C49143908600846006800F0020097
:1015A000009000BF00BF01200190032002900020A6
:1015B000039001A9044800F06DFD06B010BD0000C5
:1015C00000200140443802400004024070B5044647
:1015D0000D4600262068806800F48060B0F5806FBA
:1015E00011D12068806800F48070B0F5807F0AD146
:1015F000206C40F02000206400BF002084F83C00F4
:1016000000BF012070BD00F0BDFF064618E0681C59
:10161000B0B125B100F0B6FF801BA84210D92068F8
:10162000006800F0020002280AD0206C40F004009C
:10163000206400BF002084F83C0000BF0320E1E7E5
:101640002068006800F002000228E0D16FF012006C
:1016500021680860206C40F4007020642068806875
:1016600000F04050B8B9207EA8B92068C06A00F4E4
:10167000700020B12068806800F4806058B9206C48
:1016800020F480702064206C00F4805018B9206C25
:1016900040F0010020640020B4E7000038B50446A3
:1016A00000200090207E10B1207E012800D104E0AF
:1016B00040F2D22156A00AF032FBE06A58B1E06A4B
:1016C000B0F1805F07D0E06AB0F1005F03D0E06A5C
:1016D000B0F1405F00D104E040F2D3214CA00AF009
:1016E0001EFB00BF94F83C00012801D1022038BD48
:1016F000012084F83C0000BF2068806800F00100F1
:10170000A0B92068806840F00100216888604E48D8
:1017100000684E49B0FBF1F000EB4000009002E0A1
:101720000098401E009000980028F9D12068806839
:1017300000F00100002860D0206C40F20161884375
:1017400040F4807020642068406800F4806028B114
:10175000206C20F4005040F480502064206C00F491
:101760008050B0F5805F04D1606C20F006006064AA
:1017700001E00020606400BF002084F83C0000BF4E
:10178000334D6FF0220021680860686800F01F0088
:1017900018BB30492068884213D02F4920688842FE
:1017A00004D1281D006800F01F0050B12B492068AB
:1017B00088422AD12648001D006800F01F0010282A
:1017C00023D22068806800F04050F0B9206880681B
:1017D00040F080402168886017E01E4920688842F8
:1017E00013D12068806800F0405070B9206880688C
:1017F00040F080402168886007E0206C40F01000D5
:101800002064606C40F00100606400206FE700001D
:101810002E5C447269766572735C53544D33324664
:101820003478785F48414C5F4472697665725C53E6
:1018300072635C73746D3332663478785F68616CA0
:101840005F6164632E630000FC02002040420F00D1
:1018500000230140002001400021014000220140FE
:1018600010B504461A492068884207D019492068F3
:10187000884203D018492068884200D104E040F231
:101880004A3116A00AF04BFA00BF94F83C00012838
:1018900001D1022010BD012084F83C0000BF206867
:1018A000806820F00100216888602068806800F06E
:1018B000010028B9206C20F4885040F00100206419
:1018C00000BF002084F83C0000BF00BFE2E700003A
:1018D0000020014000210140002201402E5C4472A2
:1018E00069766572735C53544D3332463478785F51
:1018F00048414C5F4472697665725C5372635C73F5
:10190000746D3332663478785F68616C5F616463EC
:101910002E63000070B50446A56D00F033FE064648
:1019200094F83500022808D08020606500BF0020B0
:1019300084F8340000BF012070BD2068006820F0EA
:101940001600216808602068406920F08000216846
:101950004861206C08B9A06C28B12068006820F0AC
:101960000800216808602068006820F001002168F4
:10197000086010E000F006FE801B05280BD920202F
:101980006065032084F8350000BF002084F834002F
:1019900000BF0320D0E72068006800F001000028A5
:1019A000E8D194F85C103F208840A860012084F8BA
:1019B000350000BF002084F8340000BF00BFBBE743
:1019C000014691F83500022803D0802048650120A7
:1019D0007047052081F835000868006820F0010094
:1019E0000A6810600020F3E7014691F8350070475F
:1019F000F8B50446002000908C4800684FF416515A
:101A0000B0FBF1F7A56D2E6894F85C1008208840B3
:101A1000304098B12068006800F0040070B1206880
:101A2000006820F004002168086094F85C10082029
:101A30008840A860606D40F00100606594F85C101B
:101A400001208840304068B12068406900F0800083
:101A500040B194F85C1001208840A860606D40F0AF
:101A60000200606594F85C1004208840304068B142
:101A70002068006800F0020040B194F85C10042077
:101A80008840A860606D40F00400606594F85C10C8
:101A900010208840304078B32068006800F00800CB
:101AA00050B394F85C1010208840A860206800684B
:101AB00000F4802080B12068006800F4002028B97C
:101AC000206CC8B12046216C884715E0A06C98B105
:101AD0002046A16C88470FE02068006800F4807001
:101AE00028B92068006820F0080021680860206C90
:101AF00010B12046216C884794F85C102020884063
:101B00003040002865D02068006800F010000028F0
:101B10005FD094F85C1020208840A86094F83500CD
:101B2000052828D12068006820F016002168086088
:101B30002068406920F0800021684861206C08B965
:101B4000A06C28B12068006820F0080021680860B7
:101B500094F85C103F208840A860012084F835008C
:101B600000BF002084F8340000BF206D10B1204673
:101B7000216D8847F8BD2068006800F4802080B19E
:101B80002068006800F4002028B9606C10B120467D
:101B9000616C88471DE0E06BD8B12046E16B884757
:101BA00017E02068006800F4807068B92068006859
:101BB00020F0100021680860012084F8350000BF83
:101BC000002084F8340000BFE06B10B12046E16BC8
:101BD0008847606D38B3606D00F00100F0B10520FA
:101BE00084F835002068006820F001002168086052
:101BF00000BF0098401C0090B84200D905E0206862
:101C0000006800F001000028F3D100BF012084F833
:101C1000350000BF002084F8340000BFE06C10B134
:101C20002046E16C884700BFA4E70000FC020020CA
:101C30002DE9F0410446002500F0A4FC074614B944
:101C40000120BDE8F081C0492068884249D0BE49E2
:101C500018312068884244D0BB493031206888421E
:101C60003FD0B9494831206888423AD0B6496031FE
:101C70002068884235D0B44978312068884230D015
:101C8000B1499031206888422BD0AF49A8312068F3
:101C9000884226D0AD492068884222D0AB4918310D
:101CA000206888421DD0A94930312068884218D068
:101CB000A64948312068884213D0A4496031206881
:101CC00088420ED0A14978312068884209D09F49C6
:101CD00090312068884204D09C49A831206888420D
:101CE00000D103E0B7219AA00AF019F86068D8B1D2
:101CF0006068B0F1007F17D06068B0F1806F13D0DA
:101D00006068B0F1C06F0FD06068B0F1006F0BD0A9
:101D10006068B0F1206F07D06068B0F1406F03D009
:101D20006068B0F1606F00D103E0B82188A009F0CD
:101D3000F6FFA06828B1A068402802D0A0688028DB
:101D400000D103E0B92182A009F0E9FFE068B0F515
:101D5000007F01D0E06800B903E0BA217CA009F05F
:101D6000DEFF2069B0F5806F01D0206900B903E083
:101D7000BB2177A009F0D3FF606938B16069B0F585
:101D8000006F03D06069B0F5805F00D103E0BC2133
:101D90006FA009F0C4FFA06938B1A069B0F5005F79
:101DA00003D0A069B0F5804F00D103E0BD2168A049
:101DB00009F0B5FFE06930B1E069B0F5807F02D08D
:101DC000E069202800D103E0BE2161A009F0A7FF4F
:101DD000206A58B1206AB0F5803F07D0206AB0F57C
:101DE000003F03D0206AB0F5403F00D103E0BF219F
:101DF00057A009F094FF606A10B1606A042800D10E
:101E000003E0C02152A009F08AFF606A002835D0A3
:101E1000A06A40B1A06A012805D0A06A022802D0B9
:101E2000A06A032800D103E0C52149A009F077FF8B
:101E3000E06A58B1E06AB0F5000F07D0E06AB0F18F
:101E4000807F03D0E06AB0F1C07F00D103E0C621FB
:101E50003FA009F064FF206B58B1206BB0F5001F64
:101E600007D0206BB0F5800F03D0206BB0F5C00F0A
:101E700000D103E0C72136A009F051FF022084F809
:101E8000350000BF002084F8340000BF20680068DF
:101E900020F00100216808600AE000F073FBC01B1D
:101EA000052805D920206065032084F83500C8E6A0
:101EB0002068006800F001000028EED12068056865
:101EC00031480540D4E901010843E168084321692C
:101ED000084361690843A1690843E1690843216A2D
:101EE00008430543606A042803D1D4E90B01084381
:101EF0000543206805602068456925F00705606A8C
:101F00000543606A04280DD1A06A0543E06A48B120
:101F10002046FEF79FFF28B140206065012084F82D
:101F200035008EE6206845612046FEF779FF0646BB
:101F300094F85C103F208840B0600020606501206C
:101F400084F8350000207CE61060024010640240F6
:101F50002E5C447269766572735C53544D3332461D
:101F60003478785F48414C5F4472697665725C539F
:101F700072635C73746D3332663478785F68616C59
:101F80005F646D612E6300003F8010F02DE9F04723
:101F900004460E4617461D464FF00008D4F85890E8
:101FA0001DB1B5F5803F00D204E040F2CB1121A075
:101FB00009F0B5FE00BF94F83400012802D10220D8
:101FC000BDE8F087012084F8340000BF94F83500A4
:101FD000012825D1022084F83500002060652B46B9
:101FE0003A4631462046FEF78AFF94F85C103F20BF
:101FF0008840C9F808002068006840F01600216891
:102000000860206C28B12068006840F00800216852
:1020100008602068006840F001002168086006E060
:1020200000BF002084F8340000BF4FF00208404693
:10203000C6E700002E5C447269766572735C535487
:102040004D3332463478785F48414C5F447269764C
:1020500065725C5372635C73746D33326634787886
:102060005F68616C5F646D612E63000070B504464B
:1020700000F088FA06462546681C10B1044800782E
:10208000054400BF00F07EFA801BA842FAD370BD61
:10209000080300202DE9F84306460C464FF00009DE
:1020A000C8460025E648864217D0E648864214D046
:1020B000E548864211D0E54886420ED0E448864283
:1020C0000BD0E448864208D0E348864205D0E34876
:1020D000864202D0E248864200D103E0AC21E1A072
:1020E00009F01DFE208880B220B120686FF30F0038
:1020F00000B903E0AD21DBA009F011FE606830B348
:102100006068012823D06068112820D06068022808
:102110001DD0606812281AD06068B0F5881F16D0EC
:102120006068B0F5041F12D06068B0F5441F0ED08F
:102130006068B0F5901F0AD06068B0F5081F06D03F
:102140006068B0F5481F02D06068032800D103E042
:10215000AE21C4A009F0E3FD00276BE1012000FAE5
:1021600007F9206800EA0908C8457DD1207900F008
:102170000300012804D0207900F00300022823D1B5
:10218000E06840B1E068012805D0E068022802D08C
:10219000E068032800D103E0C021B2A009F0BFFD30
:1021A000B56879000320884085437900E06888405D
:1021B0000543B56075680120B84085432079C0F3B8
:1021C0000010B84005437560207900F00300032833
:1021D00016D0A06828B1A068012802D0A068022803
:1021E00000D103E0D1219FA009F099FDF5687900A5
:1021F0000320884085437900A06888400543F56046
:10220000207900F0030002287ED1206968B320699C
:10221000092864D0206940B3206930B3206920B315
:10222000206910B32069012859D02069012856D0AF
:102230002069022853D02069022850D02069022842
:102240004DD0206903284AD02069042847D020694E
:10225000042844D02069042841D0206905283ED0B4
:10226000206905283BD001E0E3E038E02069092837
:1022700035D02069062832D0206909282FD020695E
:1022800007282CD02069072829D02069072826D0C4
:102290002069082823D02069082820D02069082830
:1022A0001DD0206909281AD02069092817D0206973
:1022B0000A2814D020690A2811D020690B280ED0D2
:1022C00020690C280BD020690C2808D020690D2823
:1022D00005D020690C2802D020690F2800D103E026
:1022E000DE2160A009F01BFDF90806F1200050F87E
:1022F00021507807C10E0F20884085437907C90E09
:1023000020698840054300E004E0F90806F1200058
:1023100040F82150356879000320884085432079B2
:1023200000F003007900884005433560606800F4E0
:10233000403000287DD000BF002000905748006842
:1023400040F48040554908600846006800F4804029
:10235000009000BF00BF5248B90850F82150B8079C
:10236000010F0F20884085433548864201D1002067
:1023700023E03448864201D101201EE032488642E3
:1023800001D1022019E03148864201D1032014E036
:102390002F48864201D104200FE02E48864201D109
:1023A00005200AE02C48864201D1062005E02B4892
:1023B000864201D1072000E00820B907090F8840B4
:1023C00005433748B90840F821503648056825EAE2
:1023D0000805606800F4801008B145EA0805314836
:1023E0000560001D056825EA0805606800F4001016
:1023F00008B145EA08052B48001D05602948001F63
:10240000056825EA0805606800F4003008B145EA6F
:1024100008052448001F0560001F056825EA080517
:10242000606800F4803008B145EA08051D480838A6
:1024300005607F1C102FFFF491AEBDE8F88300000B
:10244000000002400004024000080240000C02406C
:10245000001002400014024000180240001C02401C
:10246000002002402E5C447269766572735C53549E
:102470004D3332463478785F48414C5F4472697618
:1024800065725C5372635C73746D33326634787852
:102490005F68616C5F6770696F2E6300443802404B
:1024A00008380140083C014070B505460C46A0B212
:1024B00018B1200C000400B904E04FF4DB7106A051
:1024C00009F02DFC6E6924EA060006EA040140EAE0
:1024D0000140A86170BD00002E5C4472697665728F
:1024E000735C53544D3332463478785F48414C5FC7
:1024F0004472697665725C5372635C73746D3332D7
:10250000663478785F68616C5F6770696F2E63000E
:1025100070B506460C461546A0B218B1200C000452
:1025200000B904E040F29D1108A009F0F8FB0DB1DC
:10253000012D00D104E04FF4CF7104A009F0EFFBAE
:102540000DB1B46101E02004B06170BD2E5C447235
:1025500069766572735C53544D3332463478785FD4
:1025600048414C5F4472697665725C5372635C7378
:10257000746D3332663478785F68616C5F67706958
:102580006F2E6300014800687047000000030020C0
:10259000704770472DE9F84F044620684769206866
:1025A000D0F80480002594F83E90C7F3002040B195
:1025B000C8F3002028B145F001056FF48070216850
:1025C0004861C7F3402040B1C8F3002028B145F06E
:1025D00002056FF4007021684861C7F3802070B372
:1025E000C8F3002058B3CA46B4F82AB094F83D6046
:1025F000206B0090BAF1200F0FD1BBF1000F0CD16E
:10260000212E06D0292E04D0282E06D1009821286C
:1026100003D1204605F0A2F811E06FF48060216834
:10262000486145F00405B9F1100F02D0B9F1400F2F
:1026300005D12068006840F4007021680860C7F385
:10264000C02040B1C8F3002028B145F008056FF460
:102650000060216848612DB1206C28432064204629
:1026600004F0FEF9BDE8F88F2DE9F04705464FF07C
:10267000000928684668D5F82CA095F83E7095F8B2
:102680003D80102F01D0402F75D12868D0F81890C8
:102690002868446904F0010060B9BAF52A0F02D035
:1026A000BAF12A4F01D1012000E00020012801D118
:1026B000BDE8F08704F0010048B1C6F3402030B116
:1026C000284604F039F9284604F0DEFDB7E0C4F3EB
:1026D000C00030B1C6F3402018B1284604F08BFC8E
:1026E000ADE0C4F3400030B1C6F3402018B1284635
:1026F00004F096FCA3E0C9F3800040B3286840686A
:1027000000F40060B0F5006FE0D0C4F3C01048B131
:10271000C6F3802030B1C4F3800018B9284604F015
:10272000FEFB8CE0C4F380000028CFD0C6F340202D
:102730000028CBD0B8F1210F03D1284604F09FFB2D
:102740007DE0402F7BD1284604F0EDFD77E028683E
:10275000406800F40060B0F5006F70D0C4F38010E2
:1027600050B1C6F3802038B1C4F3800020B92846A8
:1027700004F003FB63E00BE0C4F3800000285ED0AC
:10278000C6F3402000285AD0284604F05EFA56E0EE
:10279000286C10B12868446904E02868D0F81890C3
:1027A00028684469C4F3400060B1C6F3402048B1D2
:1027B000286C10B12868D0F818904946284604F0D3
:1027C00095FF3CE0C4F3001030B1C6F3402018B1CF
:1027D000284605F017F832E0B8F1210F02D0B8F121
:1027E000290F16D1C4F3C01048B1C6F3802030B110
:1027F000C4F3800018B9284604F055FF1FE0C4F365
:102800008000E0B1C6F34020C8B1284604F03EFF86
:1028100015E0C4F3801048B1C6F3802030B1C4F392
:10282000800018B9284604F00EFF08E0C4F38000C9
:1028300028B1C6F3402010B1284604F0F7FE00BFCF
:1028400036E7704770B504460CB9012070BDA34946
:102850002068884207D0A2492068884203D0A14955
:102860002068884200D104E040F2C9119EA009F01E
:1028700056FA606820B1AA496068884200D804E02E
:102880004FF4E57198A009F04AFAA06818B1A06861
:10289000B0F5804F00D104E040F2CB1192A009F0D6
:1028A0003EFAE0686FF3090000B904E04FF4E67106
:1028B0008DA009F034FA2069B0F5804F03D020696B
:1028C000B0F5404F00D104E040F2CD1186A009F0F0
:1028D00026FA606910B16069012800D104E04FF464
:1028E000E77181A009F01BFAA06920F0FE0000B991
:1028F00004E040F2CF117CA009F011FAE06910B1B8
:10290000E069402800D104E04FF4E87176A009F0B6
:1029100006FA206A10B1206A802800D104E040F253
:10292000D11171A009F0FBF994F83D0028B90020FD
:1029300084F83C00204600F085FB242084F83D000C
:102940002068006820F001002168086020680068A5
:1029500040F40040216808602068006820F40040CE
:102960002168086000F0D8FE05466E49606888421C
:1029700006D86D48854201D2012007E0002005E01D
:102980006A48854201D2012000E00020012800D1E0
:102990005CE76748B5FBF0F62068406820F03F0030
:1029A0003043216848605F496068884201D8701CE4
:1029B00007E04FF4967070434FF47A71B0FBF1F07A
:1029C000401C2168096A21F03F0108432168086220
:1029D00054496068884214D8681E61684900B0FB99
:1029E000F1F0401CC0F30B00042801D204203DE0AC
:1029F000681E61684900B0FBF1F0401CC0F30B0099
:102A000034E0A06838B9681E616801EB4101B0FB91
:102A1000F1F0401C0AE0681E616801EBC10202EBA4
:102A20000111B0FBF1F0401C40F48040C0F30B00FA
:102A300008B901201AE0A06848B9681E616801EB76
:102A40004101B0FBF1F0401CC0F30B000CE0681E2C
:102A5000616801EBC10202EB0111B0FBF1F0401C17
:102A6000C0F30B0040F4804040F400402168C96985
:102A70004CF6FF72914308432168C861D4E907010D
:102A800008432168096821F0C001084321680860F3
:102A9000D4E9031008432168896848F2FF32914362
:102AA000084321688860D4E9050108432168C968A2
:102AB00021F0FF0108432168C8602068006840F0E9
:102AC00001002168086000202064202084F83D0077
:102AD0000020206384F83E0000BFB7E600540040A9
:102AE00000580040005C00402E5C447269766572BC
:102AF000735C53544D3332463478785F48414C5FB1
:102B00004472697665725C5372635C73746D3332C0
:102B1000663478785F68616C5F6932632E630000A9
:102B2000801A0600A086010080841E0000093D0076
:102B300040420F0070477047704770477047000071
:102B40002DE9FC5F0446884691461E46DDE90CAB44
:102B50000E9FFFF717FD0546012E01D0102E00D164
:102B600004E040F64821BAA009F0D9F894F83D00F5
:102B7000202870D119230122C3492046009504F072
:102B80003AFF10B10220BDE8FC9F00BF94F83C0062
:102B9000012801D10220F6E7012084F83C0000BFA3
:102BA0002068006800F0010028B92068006840F043
:102BB0000100216808602068006820F40060216836
:102BC0000860222084F83D00402084F83E00002068
:102BD0002064C4F824A0A4F82AB0608D2085AB48F6
:102BE000E06233464A4641462046CDE9007504F08E
:102BF000FDFB08B10120C6E7208D88B900BF002089
:102C0000019020684069019020688069019000BFB0
:102C100000BF2068006840F400702168086040E050
:102C2000208D012818D12068006820F48060216878
:102C3000086000BF00200190206840690190206872
:102C40008069019000BF00BF2068006840F40070F8
:102C50002168086025E0F8E0208D022816D1206860
:102C6000006820F48060216808602068006840F4F3
:102C700000602168086000BF002001902068406962
:102C8000019020688069019000BF0AE000BF002029
:102C9000019020684069019020688069019000BF20
:102CA00000BFC3E0208D03287ED8208D012815D1D8
:102CB0002A463946204604F07AFF08B1012062E72F
:102CC00020680069616A0870606A401C6062208D3B
:102CD000401E2085608D401E6085A7E0208D022863
:102CE0002AD13B4600226A492046009504F083FE23
:102CF00008B1012047E72068006840F400702168AF
:102D0000086020680069616A0870606A401C60623F
:102D1000208D401E2085608D401E608520680069E2
:102D2000616A0870606A401C6062208D401E2085C8
:102D3000608D401E608579E03B4600225449204664
:102D4000009504F058FE08B101201CE720680068D7
:102D500020F480602168086020680069616A08705A
:102D6000606A401C6062208D401E2085608D401E80
:102D700060853B46002246492046009504F03BFE14
:102D800008B10120FFE62068006840F40070216867
:102D9000086020680069616A0870606A401C6062AF
:102DA000208D401E208500E010E0608D401E608573
:102DB00020680069616A0870606A401C6062208D4A
:102DC000401E2085608D401E60852FE02A463946D2
:102DD000204604F0ECFE08B10120D4E6206800692A
:102DE000616A0870606A401C6062208D401E208508
:102DF000608D401E608520684069C0F38000A8B1E6
:102E0000208D032805D12068006820F480602168A7
:102E1000086020680069616A0870606A401C60622E
:102E2000208D401E2085608D401E6085208D0028ED
:102E30007FF438AF202084F83D00002084F83E0065
:102E400000BF84F83C0000BF9DE602209BE6000026
:102E50002E5C447269766572735C53544D3332460E
:102E60003478785F48414C5F4472697665725C5390
:102E700072635C73746D3332663478785F68616C4A
:102E80005F6932632E630000020010000000FFFF44
:102E9000040001002DE9FC5F0446884691461D466A
:102EA000DDE90CAB0E9FFFF76DFB0646012D01D04F
:102EB000102D00D104E040F6CD1152A008F02FFFF4
:102EC00094F83D0020287DD1192301225B4920463A
:102ED000009604F090FD10B10220BDE8FC9F00BFF9
:102EE00094F83C00012801D10220F6E7012084F883
:102EF0003C0000BF2068006800F0010028B920688D
:102F0000006840F00100216808602068006820F433
:102F1000006021680860212084F83D00402084F88A
:102F20003E0000202064C4F824A0A4F82AB0608DDC
:102F300020854348E0622B464A4641462046CDE97B
:102F4000007604F003FB08B10120C6E731E0324609
:102F50003946204604F098FE50B1206C042805D173
:102F60002068006840F40070216808600120B4E720
:102F7000606A007821680861606A401C6062208D88
:102F8000401E2085608D401E608520684069C0F32A
:102F9000800070B1208D60B1606A0078216808619E
:102FA000606A401C6062208D401E2085608D401E3E
:102FB0006085208D0028CAD132463946204604F06B
:102FC000E7FC00E01CE050B1206C042805D120682B
:102FD000006840F400702168086001207DE72068E7
:102FE000006840F4007021680860202084F83D00EB
:102FF000002084F83E0000BF84F83C0000BF6CE76E
:1030000002206AE72E5C447269766572735C5354E1
:103010004D3332463478785F48414C5F447269766C
:1030200065725C5372635C73746D333266347878A6
:103030005F68616C5F6932632E63000002001000FC
:103040000000FFFF10B586B00446142101A8FDF76B
:1030500070F923492068884240D100BF00200090C9
:103060002048006840F002001E49086008460068D9
:1030700000F00200009000BF00BF4FF440700190CC
:103080001220029001200390032004900420059058
:1030900001A91548FEF7FEFF00BF0020009011486F
:1030A0001030006840F400100E49103108600846E6
:1030B000006800F40010009000BF00BF002205214E
:1030C0001F2000F0F3F81F2000F0B6F800220521C1
:1030D000202000F0EBF8202000F0AEF806B010BD84
:1030E00000540040303802400004024070477047EE
:1030F000034800680349097808440149086070479B
:10310000000300200803002010B50D48006840F4BB
:1031100000700B4908600846006840F48060086051
:103120000846006840F480700860032000F028F929
:103130000F2000F007F800F055F8002010BD000047
:10314000003C0240F0B587B004460026002700BFCF
:10315000002000901E48006840F480301C49086040
:103160000846006800F48030009000BF00BF01A94D
:1031700002A800F0A9FA00F0DFFA46001548B6FBF5
:10318000F0F0471E14481549086040F2E731134833
:10319000C1604760002101618160816100F0D2FF60
:1031A000054695B90D4801F021F905466DB918207D
:1031B00000F042F8102C07D200222146182000F01F
:1031C00075F80748046000E00125284607B0F0BD07
:1031D0004438024040420F0000400140602300207C
:1031E0000403002008B500BF0020009011480068CB
:1031F00040F480400F4908600846006800F48040B1
:10320000009000BF00BF00BF00200090081F0068B2
:1032100040F08050091F08600846006800F08050A8
:10322000009000BF00BF00220F21901E00F03EF86A
:1032300008BD00004438024010B50446002C00DBF5
:1032400003E0BC210AA008F06AFD204600280DDB3F
:1032500000BF00BF00F01F0201219140420992000F
:1032600002F1E022C2F8001100BF00BF00BF10BD94
:103270002E5C447269766572735C53544D333246EA
:103280003478785F48414C5F4472697665725C536C
:1032900072635C73746D3332663478785F68616C26
:1032A0005F636F727465782E630000002DE9F05F34
:1032B00080460C4615460027102D00D203E0A821B9
:1032C00020A008F02CFD102C00D203E0A9211DA0A5
:1032D00008F025FD07F068FE0746394622462B46D2
:1032E00001F00700C0F1070ABAF1040F02D94FF04C
:1032F000040A01E0C0F1070AD14600F1040ABAF15C
:10330000070F02D24FF0000A01E0A0F1030AD446F1
:103310004FF0010A0AFA09FAAAF1010A0AEA020AB6
:103320000AFA0CFA4FF0010B0BFA0CFBABF1010B94
:103330000BEA030B4AEA0B063146404607F03CFE17
:10334000BDE8F09F2E5C447269766572735C5354DD
:103350004D3332463478785F48414C5F4472697629
:1033600065725C5372635C73746D33326634787863
:103370005F68616C5F636F727465782E6300000034
:1033800010B50446072C07D0062C05D0052C03D019
:10339000042C01D0032C00D103E0902109A008F0F7
:1033A000BEFC00BF04F00701154A10684FF6FF028B
:1033B0001040144A024342EA0120114A106000BF43
:1033C00010BD00002E5C447269766572735C5354C4
:1033D0004D3332463478785F48414C5F44726976A9
:1033E00065725C5372635C73746D333266347878E3
:1033F0005F68616C5F636F727465782E63000000B4
:103400000CED00E00000FA0570B504460D460CB95D
:10341000012070BD2068012803D320680F2800D840
:1034200004E040F25A2195A008F079FC6DB1012D1D
:103430000BD0022D09D0032D07D0042D05D0052D6A
:1034400003D0062D01D0072D00D104E040F25B210E
:103450008AA008F064FC9748006800F00700A842C2
:1034600009D294490D700846006800F00700A84290
:1034700001D00120CDE7207800F0020002283DD1E4
:10348000207800F00400042805D18B48006840F43F
:10349000E05089490860207800F00800082805D12C
:1034A0008548006840F4604083490860A068B8B16E
:1034B000A068802814D0A068902811D0A068A02807
:1034C0000ED0A068B0280BD0A068C02808D0A06893
:1034D000D02805D0A068E02802D0A068F02800D14C
:1034E00004E040F27E2165A008F019FC72480068F3
:1034F00020F0F000A16808436F490860207800F0D0
:10350000010000284ED0606840B16068012805D0F5
:103510006068022802D06068032800D104E040F20D
:10352000852156A008F0FBFB6068012807D162489E
:1035300008380068C0F34040B8B9012069E7606806
:10354000022802D06068032807D15B480838006869
:10355000C0F3406048B901205BE75748083800686D
:10356000C0F3400008B9012053E75348006820F039
:1035700003006168084350490860FFF703F80646F6
:1035800008E0FEF7FFFF801B41F28831884201D935
:1035900003203EE74848006800F00C006168B0EB8B
:1035A000810FEED14348006800F00700A84209D916
:1035B00040490D700846006800F00700A84201D09D
:1035C000012026E7207800F0040004281FD1E068DD
:1035D00078B1E068B0F5805F0BD0E068B0F5A05F2F
:1035E00007D0E068B0F5C05F03D0E068B0F5E05FF9
:1035F00000D104E040F2C32120A008F090FB2E4847
:10360000006820F4E050E16808432B490860207806
:1036100000F00800082820D1206978B12069B0F5B1
:10362000805F0BD02069B0F5A05F07D02069B0F5AE
:10363000C05F03D02069B0F5E05F00D104E040F244
:10364000CA210EA008F06BFB1B48006820F4604004
:10365000216940EAC1001849086000F07DF8164968
:103660000968C1F30311154A515CC8401449086048
:1036700014480068FFF766FD0020CAE62E5C44721D
:1036800069766572735C53544D3332463478785F93
:1036900048414C5F4472697665725C5372635C7337
:1036A000746D3332663478785F68616C5F7263631F
:1036B0002E630000003C024008380240B449010873
:1036C000FC020020040300200F2202600D4A126851
:1036D00002F0030242600B4A126802F0F0028260BC
:1036E000084A126802F4E052C260064A126802F404
:1036F0006042D2080261044A126802F007020A60BE
:103700007047000008380240003C02400148006851
:1037100070470000FC02002000B5FFF7F7FF0449E6
:103720000968C1F38221034A515CC84000BD000012
:1037300008380240C449010800B5FFF7E7FF044913
:103740000968C1F34231034A515CC84000BD000022
:1037500008380240C44901082DE9F047002400253B
:103760000026A1462548006800F00C0020B104287E
:1037700005D008283AD105E0DFF8849039E0DFF879
:10378000849036E01D48001F006800F03F041B488D
:10379000001F006800F4800078B11A481749091F1B
:1037A0000968C1F38811A0FB01700146224600237D
:1037B0003846FCF765FD05460EE011480F49091F24
:1037C0000968C1F38811A0FB01700146224600235D
:1037D0003846FCF755FD05460848001F0068C0F351
:1037E0000140401C4600B5FBF6F902E0DFF81090FE
:1037F00000BF00BF4846BDE8F0870000083802401F
:103800000024F40000127A00F8B504460CB9012037
:10381000F8BD20680F2800D803E0E621FBA008F0DF
:103820007EFA207800F00100002870D0606838B17E
:103830006068B0F5803F03D06068B0F5A02F00D17C
:1038400003E0EB21F1A008F06AFAFE48006800F0FE
:103850000C0004280DD0FB48006800F00C0008287C
:1038600013D1F848001F006800F48000B0F5800F05
:103870000BD1F44808380068C0F34040002859D004
:103880006068002856D10120C2E700BF6068B0F52B
:10389000803F08D1EB480838006840F48030E9499F
:1038A000083908601EE06068B0F5A02F0DD1E5482A
:1038B0000838006840F48020E2490839086008466A
:1038C000006840F4803008600CE0DE48083800688A
:1038D00020F48030DB49083908600846006820F48D
:1038E0008020086000BF606890B1FEF74BFE05467F
:1038F00006E0FEF747FE401B642801D9032087E756
:10390000D04808380068C0F340400028F1D011E0EA
:10391000FEF738FE054606E0FEF734FE401B64283D
:1039200001D9032074E7C74808380068C0F3404055
:103930000028F1D1207800F00200022873D1E0685D
:1039400010B1E068012800D104E040F21D11AFA0E1
:1039500008F0E5F920691F2800D804E04FF48F71C2
:10396000AAA008F0DCF9B748006800F00C0058B1D4
:10397000B448006800F00C0008281CD1B148001FB2
:10398000006800F48000B0B9AE4808380068C0F3A1
:10399000400020B1E068012801D0012038E7A948A3
:1039A0000838006820F0F800216940EAC100A54904
:1039B0000839086037E0E06800B30120A2490860D8
:1039C000FEF7E0FD054606E0FEF7DCFD401B0228A1
:1039D00001D903201CE79B4808380068C0F3400069
:1039E0000028F1D097480838006820F0F8002169D5
:1039F00040EAC10093490839086014E00020924968
:103A00000860FEF7BFFD054606E0FEF7BBFD401B64
:103A1000022801D90320FBE68A4808380068C0F371
:103A200040000028F1D1207800F00800082837D1A4
:103A3000606910B16069012800D104E04FF4AF71F2
:103A400072A008F06CF96069A8B101207F49086094
:103A5000FEF798FD054606E0FEF794FD401B0228A0
:103A600001D90320D4E677486C300068C0F34000E9
:103A70000028F1D014E0002074490860FEF782FDB0
:103A8000054606E0FEF77EFD401B022801D9032013
:103A9000BEE66C486C300068C0F340000028F1D1ED
:103AA000207800F00400042875D10027A06828B110
:103AB000A068012802D0A068052800D104E04FF4D6
:103AC000C57152A008F02BF95E483830006800F04C
:103AD000805090B900BF002000905A4838300068EC
:103AE00040F080505749383108600846006800F0BF
:103AF0008050009000BF00BF01275548006800F4C7
:103B00008070B0B95248006840F480705049086035
:103B1000FEF738FD054606E0FEF734FD401B02289F
:103B200001D9032074E64A48006800F48070002838
:103B3000F2D000BFA068012808D142486830006870
:103B400040F001003F49683108601DE0A068052889
:103B50000DD13C486830006840F0040039496831B4
:103B600008600846006840F0010008600CE0354835
:103B70006830006820F0010032496831086008466A
:103B8000006820F00400086000BFA068A8B1FEF73C
:103B9000F9FC054609E02FE0FEF7F4FC401B41F27A
:103BA0008831884201D9032032E62648683000680F
:103BB000C0F340000028EFD013E0FEF7E3FC054619
:103BC00008E0FEF7DFFC401B41F28831884201D952
:103BD00003201DE61B4868300068C0F34000002841
:103BE000EFD1012F07D117483830006820F08050FE
:103BF00014493831086000BFA06928B1A0690128C4
:103C000002D0A069022825D12AE000002E5C44726F
:103C100069766572735C53544D3332463478785FFD
:103C200048414C5F4472697665725C5372635C73A1
:103C3000746D3332663478785F68616C5F72636389
:103C40002E6300000838024000004742800E4742C1
:103C50000070004040F2CD11AFF2500008F05FF864
:103C6000A06900287ED06C48006800F00C0008288D
:103C700079D0A069022877D1E06918B1E069B0F580
:103C8000800F00D105E04FF4EB71AFF2800008F037
:103C900046F8206A022803D3206A3F2800D805E0AE
:103CA00040F2D711AFF29C0008F039F8606A322870
:103CB00004D3606AB0F5D87F00D805E04FF4EC710A
:103CC000AFF2B80008F02BF8A06A022808D0A06A6A
:103CD000042805D0A06A062802D0A06A082800D1CE
:103CE00005E040F2D911AFF2DC0008F018F8E06A04
:103CF000022803D3E06A0F2800D805E04FF4ED71E5
:103D0000AFF2F80008F00BF8002044490866FEF70F
:103D100039FC054606E0FEF735FC401B022801D9B8
:103D2000032075E53C4808380068C0F3406000286F
:103D3000F1D1D4E907010843616A40EA8111012207
:103D4000A06AC2EB500041EA00412C20005D41EA2C
:103D500000603149091F0860012030490866FEF7FC
:103D600011FC02E055E027E010E0054606E0FEF712
:103D700009FC401B022801D9032049E526480838E0
:103D80000068C0F340600028F1D042E000202349E1
:103D90000866FEF7F7FB054606E0FEF7F3FB401B5F
:103DA000022801D9032033E51B4808380068C0F316
:103DB00040600028F1D12CE0A069012800D127E55E
:103DC0001548001F0668A069012820D006F480016C
:103DD000E06981421BD106F03F01206A814216D181
:103DE00047F6C0703040616AB0EB811F0FD106F416
:103DF00040310122A06AC2EB5000B1EB004F06D166
:103E000006F070612C20005DB1EB006F01D0012045
:103E1000FEE40020FCE400000838024000004742B5
:103E20007047704770B506460C4600254E4930680D
:103E3000884203D04D493068884200D104E040F206
:103E4000E6714BA007F06BFF2068B0F5006F01D062
:103E5000206800B904E040F2E77145A007F05FFF79
:103E60006068B0F5806F01D0606800B904E04FF47D
:103E7000FD613FA007F053FFA06858B1A068B0F5FE
:103E8000807F07D0A068B0F5007F03D0A068B0F5B0
:103E9000407F00D104E040F2E97135A007F03FFF18
:103EA000E068FF2800D804E040F2EA7130A007F093
:103EB00036FF2069B0F5805F01D0206900B904E0C9
:103EC00040F2EB712AA007F02AFF606918B160691F
:103ED000B0F5005F00D104E040F2EC7124A007F0DF
:103EE0001EFFE069B0F5804F01D0E06900B904E041
:103EF00040F2ED711EA007F012FF00BF96F83C00E3
:103F0000012801D1022070BD012086F83C0000BFCD
:103F100025F0FF00E16840EA010525F44070A16842
:103F200040EA010525F48060616840EA010525F456
:103F30000060216840EA010525F48050216940EACB
:103F4000010525F40050616940EA010525F480402F
:103F5000E16940EA01053068456400BF002086F849
:103F60003C0000BF00BFCEE700000140000401405C
:103F70002E5C447269766572735C53544D333246DD
:103F80003478785F48414C5F4472697665725C535F
:103F900072635C73746D3332663478785F68616C19
:103FA0005F74696D5F65782E630000002DE9F04154
:103FB00004460D464B49206888421BD02068B0F16A
:103FC000804F17D048492068884213D0474920685D
:103FD00088420FD04649206888420BD04549206866
:103FE000884207D044492068884203D0434920686A
:103FF000884200D104E040F2A97141A007F08FFE91
:104000002868A0B12868102811D0286820280ED070
:10401000286830280BD02868402808D02868502805
:1040200005D02868602802D02868702800D104E0F4
:1040300040F2AA7132A007F072FE6868802801D0B1
:10404000686800B904E040F2AB712DA007F067FE8C
:1040500000BF94F83C00012802D10220BDE8F081A5
:10406000012084F83C0000BF022084F83D00206855
:1040700047682068866827F070072868074320682B
:1040800047601849206888421BD02068B0F1804FF3
:1040900017D015492068884213D0144920688842F7
:1040A0000FD01349206888420BD0144920688842F9
:1040B00007D022492068884203D0214920688842DD
:1040C00005D126F0800668680643206886600120D6
:1040D00084F83D0000BF002084F83C0000BF00BF12
:1040E000BCE7000000000140000400400008004060
:1040F000000C00400010004000140040000401408B
:104100002E5C447269766572735C53544D3332464B
:104110003478785F48414C5F4472697665725C53CD
:1041200072635C73746D3332663478785F68616C87
:104130005F74696D5F65782E630000000040014088
:104140000018004010B504460CB9012010BD5E49AE
:104150002068884233D02068B0F1804F2FD05B496F
:10416000206888422BD05A492068884227D0594974
:104170002068884223D05849206888421FD0574978
:10418000206888421BD056492068884217D055497C
:104190002068884213D05449206888420FD0534980
:1041A000206888420BD052492068884207D0514984
:1041B0002068884203D050492068884200D104E03A
:1041C00040F213114DA007F0AAFDA06858B1A068F5
:1041D000102808D0A068202805D0A068402802D068
:1041E000A068602800D104E04FF48A7143A007F072
:1041F00096FD206938B12069B0F5807F03D0206931
:10420000B0F5007F00D104E040F215113BA007F0AB
:1042100086FD2068B0F1804F03D02E492068884287
:1042200001D1012000E0002048B9E06828B1E06831
:10423000B0F5803F01D2012006E0002004E0E068F4
:1042400008B1012000E0002000B104E04FF48B71C0
:104250002AA007F064FDA06910B1A069802800D1F0
:1042600004E040F2171125A007F059FD94F83D0035
:1042700028B9002084F83C00204600F05BF80220BA
:1042800084F83D00211D206805F06AFE012084F8B5
:10429000460000BF84F83E0001213F200155402028
:1042A00001554120015500BF00BF012084F84200A4
:1042B00043200155442001554520015500BF0120F0
:1042C00084F83D00002041E7000001400004004068
:1042D00000080040000C00400010004000140040A6
:1042E00000040140004001400044014000480140FA
:1042F00000180040001C0040002000402E5C44726A
:1043000069766572735C53544D3332463478785F06
:1043100048414C5F4472697665725C5372635C73AA
:10432000746D3332663478785F68616C5F74696D80
:104330002E63000038B5044628492068884218D109
:1043400000BF002000902648006840F0100024497B
:1043500008600846006800F01000009000BF00BF31
:10436000002205213620FEF7A1FF3620FEF764FF6C
:1043700032E01C492068884218D100BF002000901C
:104380001748006840F0200015490860084600689A
:1043900000F02000009000BF00BF00220521372060
:1043A000FEF784FF3720FEF747FF15E00E4920682F
:1043B000884211D100BF002000900948001D00680C
:1043C00040F002000649091D08600846006800F038
:1043D0000200009000BF00BF38BD00000010004088
:1043E00040380240001400400004014070B504460B
:1043F00040492068884233D02068B0F1804F2FD0E8
:104400003D49206888422BD03C492068884227D00B
:104410003B492068884223D03A49206888421FD00F
:104420003949206888421BD038492068884217D013
:1044300037492068884213D03649206888420FD017
:104440003549206888420BD034492068884207D01B
:1044500033492068884203D032492068884200D11D
:1044600004E04FF4E87130A007F059FC94F83D00E7
:10447000012801D0012070BD022084F83D00206891
:10448000C06840F001002168C8601A49206888426D
:104490001BD02068B0F1804F17D0174920688842A0
:1044A00013D01649206888420FD0154920688842E9
:1044B0000BD016492068884207D0154920688842E9
:1044C00003D01649206888420CD12068806800F02B
:1044D0000705062D0CD02068006840F00100216817
:1044E000086005E02068006840F00100216808606D
:1044F0000020C0E700000140000400400008004028
:10450000000C004000100040001400400004014076
:1045100000400140004401400048014000180040B4
:10452000001C0040002000402E5C447269766572D9
:10453000735C53544D3332463478785F48414C5F56
:104540004472697665725C5372635C73746D333266
:10455000663478785F68616C5F74696D2E63000003
:1045600010B504462D492068884233D02068B0F148
:10457000804F2FD02A49206888422BD029492068B3
:10458000884227D028492068884223D027492068BC
:1045900088421FD02649206888421BD025492068C0
:1045A000884217D024492068884213D023492068C4
:1045B00088420FD02249206888420BD021492068C8
:1045C000884207D020492068884203D01F492068CC
:1045D000884200D104E04FF4FC711DA007F09FFB5E
:1045E0002068C06820F001002168C86000BF206812
:1045F000006A41F21111084050B92068006A891020
:10460000084028B92068006820F00100216808608F
:1046100000BF012084F83D00002010BD00000140D3
:104620000004004000080040000C00400010004062
:1046300000140040000401400040014000440140DB
:104640000048014000180040001C004000200040CD
:104650002E5C447269766572735C53544D333246F6
:104660003478785F48414C5F4472697665725C5378
:1046700072635C73746D3332663478785F68616C32
:104680005F74696D2E6300002DE9F04104460D460C
:10469000002700BF94F83C00012802D10220BDE8A9
:1046A000F081012084F83C0000BF022084F83D0026
:1046B0002868B0F5805F1AD02868702817D028685D
:1046C000B0F5005F13D02868402810D02868502823
:1046D0000DD0286860280AD0286840B128681028C2
:1046E00005D02868202802D02868302800D104E0AE
:1046F00041F2C341FDA007F012FB2068866826F056
:10470000770626F47F46206886602868502878D08F
:104710000CDC202876D004DC002874D0102873D15B
:1047200035E2302871D04028F9D1A9E160286DD058
:10473000702845D0B0F5805F03D0B0F5005FEED1B2
:10474000A8E0F8492068884233D02068B0F1804F53
:104750002FD0F549206888422BD0F4492068884240
:1047600027D0F3492068884223D0F2492068884244
:104770001FD0F149206888421BD0F0492068884248
:1047800017D0EF492068884213D0EE49206888424C
:104790000FD0ED49206888420BD0EC492068884250
:1047A00007D0EB492068884203D0EA492068884254
:1047B00000D104E041F2CF41CCA007F0B0FA16E2FC
:1047C000D849206888421BD02068B0F1804F17D0AC
:1047D000D5492068884213D0D449206888420FD038
:1047E000D349206888420BD0D4492068884207D03A
:1047F000D3492068884203D0D4492068884206D132
:104800000AE0A3E0C4E1C1E1EFE1C2E1EBE041F283
:10481000D641B6A007F083FAA86858B1A868B0F5E9
:10482000805F07D0A868B0F5005F03D0A868B0F536
:10483000405F00D104E041F2D941ACA007F06FFA2B
:104840006868B0F5004F09D0686838B1686828B169
:104850006868022802D068680A2800D104E041F2A2
:10486000DA41A2A007F05BFAE8680F2800D804E05C
:1048700041F2DB419DA007F052FAD5E902136A68C4
:10488000206805F05FFC2068866846F0770620689F
:104890008660ACE1A3492068884213D02068B0F15B
:1048A000804F0FD0A049206888420BD09F492068D4
:1048B000884207D09E492068884203D09F492068DB
:1048C000884200D104E041F2EE4188A007F027FAC7
:1048D000A86858B1A868B0F5805F07D0A868B0F59F
:1048E000005F03D0A868B0F5405F00D104E041F25A
:1048F000F1417EA007F013FA6868B0F5004F09D0C7
:10490000686838B1686828B16868022802D06868A9
:104910000A2800D104E041F2F24174A007F0FFF947
:10492000E8680F2800D804E041F2F3416FA007F0D7
:10493000F6F9D5E902136A68206805F003FC2068DF
:10494000806840F480402168886050E175492068A3
:1049500088421BD02068B0F1804F17D07249206880
:10496000884213D07149206888420FD0704920686E
:1049700088420BD071492068884207D0704920686E
:10498000884203D071492068884200D104E041F296
:10499000025156A007F0C3F96868B0F5004F09D07E
:1049A000686838B1686828B16868022802D0686809
:1049B0000A2800D104E041F205514CA007F0AFF9FC
:1049C000E8680F2800D804E041F2065147A007F03C
:1049D000A6F9EA686968206805F0A2FD5021206800
:1049E00005F0BBFB03E14F49206888421BD02068DB
:1049F000B0F1804F17D04C492068884213D04B4902
:104A0000206888420FD04A49206888420BD04B4921
:104A10002068884207D04A492068884203D04B4921
:104A20002068884200D104E041F212512FA007F023
:104A300076F96868B0F5004F09D0686838B16868E1
:104A400028B16868022802D068680A2800D104E00A
:104A500041F2155125A007F062F9E8680F2800D847
:104A600004E041F2165121A007F059F9EA6869689B
:104A7000206805F068FD6021206805F06EFBB6E057
:104A80002849206888421BD02068B0F1804F17D099
:104A900025492068884213D02449206888420FD0D5
:104AA0002349206888420BD024492068884207D0D7
:104AB00023492068884203D024492068884200D1D5
:104AC00004E041F2225109A007F029F96868B0F525
:104AD000004F09D0686838B1686828B16868022852
:104AE00002D068680A2837D13CE000002E5C44728E
:104AF00069766572735C53544D3332463478785F0F
:104B000048414C5F4472697665725C5372635C73B2
:104B1000746D3332663478785F68616C5F74696D88
:104B20002E63000000000140000400400008004027
:104B3000000C004000100040001400400004014040
:104B4000004001400044014000480140001800407E
:104B5000001C00400020004041F22551AFF27400DB
:104B600007F0DDF8E8680F2800D805E041F226518B
:104B7000AFF2880007F0D3F8EA686968206805F0AA
:104B8000CFFC4021206805F0E8FA30E000BF00BF0C
:104B900000BF1C49206888421BD02068B0F1804FBC
:104BA00017D019492068884213D0184920688842D4
:104BB0000FD01749206888420BD0164920688842D8
:104BC00007D015492068884203D0144920688842DC
:104BD00000D105E041F23551AFF2F00007F09FF847
:104BE0002968206805F0B9FA01E0012700BF00BF7D
:104BF000012084F83D0000BF002084F83C0000BF85
:104C000038464CE500000140000400400008004028
:104C1000000C00400004014000400140001800402A
:104C20002DE9F04104460D4614B90120BDE8F0819C
:104C3000A449206888421BD02068B0F1804F17D06B
:104C4000A1492068884213D0A049206888420FD02B
:104C50009F49206888420BD09E492068884207D02F
:104C60009D492068884203D09C492068884200D131
:104C700004E040F6D8319AA007F051F8A06858B186
:104C8000A068102808D0A068202805D0A068402877
:104C900002D0A068602800D104E040F6D93190A08D
:104CA00007F03DF8206938B12069B0F5807F03D066
:104CB0002069B0F5007F00D104E040F6DA3188A029
:104CC00007F02DF8A06910B1A069802800D104E098
:104CD00040F6DB3182A007F022F82868012805D0D1
:104CE0002868022802D02868032800D104E040F692
:104CF000DC317BA007F013F8A868012805D0A8686C
:104D0000022802D0A868032800D104E040F6DD3173
:104D100073A007F004F8A869012805D0A869022843
:104D200002D0A869032800D104E040F6DE316CA06F
:104D300006F0F5FF686810B16868022800D104E049
:104D400040F6DF3166A006F0EAFF686910B16869D5
:104D5000022800D104E04FF43E6161A006F0DFFFBD
:104D6000E86840B1E868042805D0E868082802D05F
:104D7000E8680C2800D104E040F6E13158A006F0C4
:104D8000CEFFE86940B1E869042805D0E869082841
:104D900002D0E8690C2800D104E040F6E23150A0CE
:104DA00006F0BDFF28690F2800D804E040F6E33183
:104DB0004BA006F0B4FF286A0F2800D804E040F6A4
:104DC000E43147A006F0ABFF2068B0F1804F03D07C
:104DD0003F492068884201D1012000E0002048B905
:104DE000E06828B1E068B0F5803F01D2012006E01C
:104DF000002004E0E06808B1012000E0002000B1DC
:104E000004E040F6E53136A006F089FF94F83D0055
:104E100028B9002084F83C00204600F07DF80220EC
:104E200084F83D002068806844F2070188432168C7
:104E30008860211D206805F093F82068D0F808806C
:104E4000206886692068076A286840EA080840F2F6
:104E500003308643A969A86840EA0120064340F66A
:104E60000C4086434FF2F0008643E969E86840EA67
:104E70000120064328690001296A40EA01300643FF
:104E800027F0220727F088076969686840EA01105F
:104E900007432068C0F808802068866120680762A0
:104EA000012084F8460084F83E0001213F2001558E
:104EB000012084F8420043200155012084F83D0080
:104EC0000020B3E60000014000040040000800405C
:104ED000000C004000040140004001400018004068
:104EE0002E5C447269766572735C53544D3332465E
:104EF0003478785F48414C5F4472697665725C53E0
:104F000072635C73746D3332663478785F68616C99
:104F10005F74696D2E63000010B586B004461421DD
:104F200001A8FBF706FA81492068884239D100BF01
:104F3000002000907E48006840F001007C49086035
:104F40000846006800F00100009000BF00BF00BFED
:104F50000020009076481438006840F01000744932
:104F6000143908600846006800F01000009000BF87
:104F700000BF4FF4206001900220029001200390B6
:104F8000002004900120059001A96A48FDF782F8ED
:104F900000220F211820FEF789F91820FEF74CF99E
:104FA000C1E02068B0F1804F50D100BF00200090D8
:104FB0005F48001F006840F001005D49091F08605C
:104FC0000846006800F00100009000BF00BF00BF6D
:104FD0000020009056481438006840F00100544901
:104FE000143908600846006800F00100009000BF16
:104FF00000BF00BF002000900846006840F002009B
:1050000008600846006800F00200009000BF00BF82
:105010004FF40040019002200290012003900020F4
:1050200004900120059001A94348FDF733F80820BA
:1050300001900220029001200390002004900120A2
:10504000059001A93D48FDF725F86CE03C49206832
:10505000884232D100BF002000903548001F006810
:1050600040F002003249091F08600846006800F05D
:105070000200009000BF00BF00BF002000902C483D
:105080001438006840F001002949143908600846C6
:10509000006800F00100009000BF00BFC020019038
:1050A000022002900120039000200490022005902D
:1050B00001A92148FCF7EEFF35E02249206888422B
:1050C00031D100BF002000901948001F006840F057
:1050D00004001749091F08600846006800F0040032
:1050E000009000BF00BF00BF00200090104814389F
:1050F000006840F002000E49143908600846006854
:1051000000F00200009000BF00BFC020019002200C
:10511000029001200390002004900220059001A934
:105120000648FCF7B7FF06B010BD000000000140C4
:1051300044380240001002400000024000040240D7
:1051400000040040000800402DE9F04704460D46E9
:1051500094F83E603F20075D94F84280432010F8A9
:1051600004903F49206888421BD02068B0F1804FEE
:1051700017D03C492068884213D03B4920688842B8
:105180000FD03A49206888420BD0394920688842BC
:1051900007D038492068884203D0374920688842C0
:1051A00000D104E040F6964134A006F0B8FD6DB998
:1051B000012E02D1B8F1010F02D00120BDE8F08725
:1051C000022084F83E0084F8420025E0042D0CD132
:1051D000012F02D1B9F1010F01D00120EEE7022128
:1051E0003F2001554320015516E0012E07D1012F24
:1051F00005D1B8F1010F02D1B9F1010F01D00120A1
:10520000DCE7022084F83E0002213F200155022005
:1052100084F842004320015515B1042D0CD105E05E
:1052200001220021206804F00BFF10E0012204217C
:10523000206804F005FF0AE001220021206804F044
:10524000FFFE01220421206804F0FAFE00BF00BF27
:105250002068006840F00100216808600020ADE788
:10526000000001400004004000080040000C004025
:105270000004014000400140001800402E5C4472D0
:1052800069766572735C53544D3332463478785F77
:1052900048414C5F4472697665725C5372635C731B
:1052A000746D3332663478785F68616C5F74696DF1
:1052B0002E630000704770B504462068C5682068FA
:1052C000066906F00200022819D105F00200022842
:1052D00015D1401F2168086101202077206880696E
:1052E00000F0030018B12046FFF7E4FF05E0204678
:1052F00000F0CAF8204600F042FB0020207706F0BC
:105300000400042819D105F00400042815D1C04375
:1053100021680861022020772068806900F44070CD
:1053200018B12046FFF7C6FF05E0204600F0ACF8B4
:10533000204600F024FB0020207706F00800082813
:1053400019D105F00800082815D1C043216808616B
:10535000042020772068C06900F0030018B12046BF
:10536000FFF7A8FF05E0204600F08EF8204600F089
:1053700006FB0020207706F01000102819D105F058
:105380001000102815D1C04321680861082020773B
:105390002068C06900F4407018B12046FFF78AFF0A
:1053A00005E0204600F070F8204600F0E8FA002002
:1053B000207706F0010048B105F0010030B16FF030
:1053C000010021680861204600F0F2FB06F0800031
:1053D000802809D105F08000802805D1C0432168CC
:1053E00008612046FEF71CFD06F04000402809D168
:1053F00005F04000402805D1C043216808612046DF
:1054000000F0EEFB06F02000202809D105F0200076
:10541000202805D1C043216808612046FEF701FD20
:1054200070BD000010B586B00446142101A8FAF73B
:1054300080FF1249206888421DD100BF00200090E3
:105440000F48006840F004000D49086008460068F5
:1054500000F00400009000BF00BF4FF47070019096
:10546000022002900120039003200490059001A9DE
:105470000448FCF70FFE06B010BD00000004014018
:105480003038024000080240704700002DE9F0412A
:1054900004460D46164600273EB1042E05D0082EC0
:1054A00003D00C2E01D03C2E00D104E041F2820149
:1054B0009DA006F034FC2868602802D02868702877
:1054C00000D104E041F2830197A006F028FCA8680F
:1054D00010B1A868022800D104E041F2840192A032
:1054E00006F01DFC286910B12869042800D104E0E9
:1054F00041F285018CA006F012FC00BF94F83C003C
:10550000012802D10220BDE8F081012084F83C008E
:1055100000BF36B1042E51D0082E70D00C2E6FD1A2
:10552000C1E08F49206888422BD02068B0F1804FBD
:1055300027D08C492068884223D08B492068884234
:105540001FD08A49206888421BD089492068884238
:1055500017D088492068884213D08749206888423C
:105560000FD08649206888420BD085492068884240
:1055700007D084492068884203D083492068884244
:1055800000D104E041F28F0167A006F0C8FB294674
:10559000206804F0EBFD2068806940F00800216875
:1055A00088612068806920F0040021688861206893
:1055B00080692969084321688861ACE068492068EE
:1055C00088421BD02068B0F1804F17D06549206811
:1055D000884213D06449206888420FD0634920680C
:1055E00088420BD062492068884207D06149206810
:1055F000884203D062492068884202D106E01DE05B
:1056000087E04FF4855148A006F089FB29462068C1
:1056100004F02AFE2068806940F4006021688861F7
:105620002068806920F48060216888612068806932
:10563000296940EA0120216888616CE048492068B6
:10564000884213D02068B0F1804F0FD045492068C0
:1056500088420BD044492068884207D043492068DB
:10566000884203D042492068884200D104E041F2D8
:10567000B1012DA006F053FB2946206804F076FE08
:105680002068C06940F008002168C8612068C069CE
:1056900020F004002168C8612068C06929690843B6
:1056A0002168C86137E02E492068884213D02068FD
:1056B000B0F1804F0FD02B49206888420BD02A4987
:1056C0002068884207D029492068884203D02849A9
:1056D0002068884200D104E041F2C20112A006F025
:1056E0001EFB2946206804F0C3FE2068C06940F410
:1056F00000602168C8612068C06920F4806021686A
:10570000C8612068C069296940EA01202168C86130
:1057100001E0012700BF00BF00BF002084F83C006B
:1057200000BF3846EFE600002E5C44726976657271
:10573000735C53544D3332463478785F48414C5F44
:105740004472697665725C5372635C73746D333254
:10575000663478785F68616C5F74696D2E630000F1
:10576000000001400004004000080040000C004020
:105770000004014000400140004401400048014055
:1057800000180040001C00400020004010B50446F6
:105790000CB9012010BD5E492068884233D02068D2
:1057A000B0F1804F2FD05B49206888422BD05A49F6
:1057B0002068884227D059492068884223D0584918
:1057C000206888421FD05749206888421BD056491C
:1057D0002068884217D055492068884213D0544920
:1057E000206888420FD05349206888420BD0524924
:1057F0002068884207D051492068884203D0504928
:105800002068884200D104E040F22C514DA006F0FF
:1058100086FAA06858B1A068102808D0A06820288F
:1058200005D0A068402802D0A068602800D104E01C
:1058300040F22D5143A006F072FA206938B1206978
:10584000B0F5807F03D02069B0F5007F00D104E07F
:1058500040F22E513BA006F062FA2068B0F1804F72
:1058600003D02E492068884201D1012000E00020A9
:1058700048B9E06828B1E068B0F5803F01D2012066
:1058800006E0002004E0E06808B1012000E000200C
:1058900000B104E040F22F512AA006F040FAA069BE
:1058A00010B1A069802800D104E04FF4A66125A0C2
:1058B00006F035FA94F83D0028B9002084F83C0041
:1058C000204600F05BF8022084F83D00211D20688E
:1058D00004F046FB012084F8460000BF84F83E0037
:1058E00001213F200155402001554120015500BFB5
:1058F00000BF012084F84200432001554420015597
:105900004520015500BF012084F83D00002041E7FB
:10591000000001400004004000080040000C00406E
:10592000001000400014004000040140004001400D
:10593000004401400048014000180040001C0040A5
:10594000002000402E5C447269766572735C53548B
:105950004D3332463478785F48414C5F4472697603
:1059600065725C5372635C73746D3332663478783D
:105970005F68616C5F74696D2E63000070477047EB
:1059800070B504460D4671492068884207D1002D44
:1059900062D0042D60D0082D5ED00C2D5CD0206824
:1059A000B0F1804F07D1002D56D0042D54D0082DD2
:1059B00052D00C2D50D066492068884207D1002D66
:1059C0004AD0042D48D0082D46D00C2D44D0614932
:1059D0002068884206D1EDB3042D3DD0082D3BD080
:1059E0000C2D39D05C492068884206D195B3042D2E
:1059F00032D0082D30D00C2D2ED058492068884246
:105A000006D13DB3042D27D0082D25D00C2D23D051
:105A100053492068884202D1E5B1042D1CD0514978
:105A20002068884200D1ADB14F492068884200D13A
:105A300085B14E492068884202D15DB1042D0BD05A
:105A40004B492068884200D125B14A4920688842E4
:105A500003D100E000E005B904E040F2B35146A0F4
:105A600006F05DF915B994F83E000BE0042D02D163
:105A70003F20005D06E0082D02D14020005D01E0DE
:105A80004120005D012801D0012070BD1DB9022018
:105A900084F83E000EE0042D03D102213F20015581
:105AA00008E0082D03D102214020015502E0022127
:105AB0004120015501222946206804F0C1FA2349FA
:105AC0002068884203D025492068884201D10120FE
:105AD00000E0002028B12068406C40F400402168BC
